{"abi":[{"type":"constructor","inputs":[],"stateMutability":"nonpayable"},{"type":"function","name":"DOMAIN_NAME","inputs":[],"outputs":[{"name":"","type":"bytes32","internalType":"bytes32"}],"stateMutability":"view"},{"type":"function","name":"DOMAIN_SEPARATOR","inputs":[],"outputs":[{"name":"","type":"bytes32","internalType":"bytes32"}],"stateMutability":"view"},{"type":"function","name":"DOMAIN_TYPEHASH","inputs":[],"outputs":[{"name":"","type":"bytes32","internalType":"bytes32"}],"stateMutability":"view"},{"type":"function","name":"DOMAIN_VERSION","inputs":[],"outputs":[{"name":"","type":"bytes32","internalType":"bytes32"}],"stateMutability":"view"},{"type":"function","name":"MESSAGE_TYPEHASH","inputs":[],"outputs":[{"name":"","type":"bytes32","internalType":"bytes32"}],"stateMutability":"view"},{"type":"function","name":"_hashTypedDataV4","inputs":[{"name":"message","type":"tuple","internalType":"struct EIP712Example.Message","components":[{"name":"user","type":"address","internalType":"address"},{"name":"amount","type":"uint256","internalType":"uint256"},{"name":"nonce","type":"uint256","internalType":"uint256"},{"name":"deadline","type":"uint256","internalType":"uint256"}]}],"outputs":[{"name":"","type":"bytes32","internalType":"bytes32"}],"stateMutability":"view"},{"type":"function","name":"getDomainSeparator","inputs":[],"outputs":[{"name":"","type":"bytes32","internalType":"bytes32"}],"stateMutability":"view"},{"type":"function","name":"getNonce","inputs":[{"name":"user","type":"address","internalType":"address"}],"outputs":[{"name":"","type":"uint256","internalType":"uint256"}],"stateMutability":"view"},{"type":"function","name":"nonces","inputs":[{"name":"","type":"address","internalType":"address"}],"outputs":[{"name":"","type":"uint256","internalType":"uint256"}],"stateMutability":"view"},{"type":"function","name":"processSignedMessage","inputs":[{"name":"message","type":"tuple","internalType":"struct EIP712Example.Message","components":[{"name":"user","type":"address","internalType":"address"},{"name":"amount","type":"uint256","internalType":"uint256"},{"name":"nonce","type":"uint256","internalType":"uint256"},{"name":"deadline","type":"uint256","internalType":"uint256"}]},{"name":"signature","type":"bytes","internalType":"bytes"}],"outputs":[],"stateMutability":"nonpayable"},{"type":"event","name":"MessageProcessed","inputs":[{"name":"user","type":"address","indexed":true,"internalType":"address"},{"name":"amount","type":"uint256","indexed":false,"internalType":"uint256"},{"name":"nonce","type":"uint256","indexed":false,"internalType":"uint256"}],"anonymous":false}],"bytecode":{"object":"0x60a060405234801561000f575f5ffd5b507f8b73c3c69bb8fe3d512ecc4cf759cc79239f7b179b0ffacaa9a75d522b39400f7f2e660d2bcb8e211afd9b3c39402a8ff450f8ff096a276b00250efe4faee73f647fc89efdaa54c0f20c7adf612882df0950f5a951637e0307cdcb4c672f298b8bc6463060405160200161008995949392919061011a565b604051602081830303815290604052805190602001206080818152505061016b565b5f819050919050565b6100bd816100ab565b82525050565b5f819050919050565b6100d5816100c3565b82525050565b5f73ffffffffffffffffffffffffffffffffffffffff82169050919050565b5f610104826100db565b9050919050565b610114816100fa565b82525050565b5f60a08201905061012d5f8301886100b4565b61013a60208301876100b4565b61014760408301866100b4565b61015460608301856100cc565b610161608083018461010b565b9695505050505050565b608051610d5b6101915f395f818161026b015281816105e4015261067a0152610d5b5ff3fe608060405234801561000f575f5ffd5b506004361061009c575f3560e01c80637ecebe00116100645780637ecebe0014610148578063acb8cc4914610178578063c2de3ce614610196578063ed24911d146101b2578063f96addf3146101d05761009c565b806320606b70146100a05780632d0335ab146100be5780633644e515146100ee57806346e356b11461010c578063796f077b1461012a575b5f5ffd5b6100a8610200565b6040516100b591906107ee565b60405180910390f35b6100d860048036038101906100d39190610869565b610224565b6040516100e591906108ac565b60405180910390f35b6100f6610269565b60405161010391906107ee565b60405180910390f35b61011461028d565b60405161012191906107ee565b60405180910390f35b6101326102b1565b60405161013f91906107ee565b60405180910390f35b610162600480360381019061015d9190610869565b6102d5565b60405161016f91906108ac565b60405180910390f35b6101806102e9565b60405161018d91906107ee565b60405180910390f35b6101b060048036038101906101ab9190610948565b61030d565b005b6101ba6105e1565b6040516101c791906107ee565b60405180910390f35b6101ea60048036038101906101e591906109a5565b610608565b6040516101f791906107ee565b60405180910390f35b7f8b73c3c69bb8fe3d512ecc4cf759cc79239f7b179b0ffacaa9a75d522b39400f81565b5f5f5f8373ffffffffffffffffffffffffffffffffffffffff1673ffffffffffffffffffffffffffffffffffffffff1681526020019081526020015f20549050919050565b7f000000000000000000000000000000000000000000000000000000000000000081565b7f81a313517b0e795628c7d150d105a4a9c24b89cb93801d78137466a17c96b4d081565b7f2e660d2bcb8e211afd9b3c39402a8ff450f8ff096a276b00250efe4faee73f6481565b5f602052805f5260405f205f915090505481565b7fc89efdaa54c0f20c7adf612882df0950f5a951637e0307cdcb4c672f298b8bc681565b8260600135421115610354576040517f08c379a000000000000000000000000000000000000000000000000000000000815260040161034b90610a2a565b60405180910390fd5b5f73ffffffffffffffffffffffffffffffffffffffff16835f01602081019061037d9190610869565b73ffffffffffffffffffffffffffffffffffffffff16036103d3576040517f08c379a00000000000000000000000000000000000000000000000000000000081526004016103ca90610a92565b60405180910390fd5b82604001355f5f855f0160208101906103ec9190610869565b73ffffffffffffffffffffffffffffffffffffffff1673ffffffffffffffffffffffffffffffffffffffff1681526020019081526020015f205414610466576040517f08c379a000000000000000000000000000000000000000000000000000000000815260040161045d90610afa565b60405180910390fd5b5f61047084610608565b90506104d1845f0160208101906104879190610869565b8285858080601f0160208091040260200160405190810160405280939291908181526020018383808284375f81840152601f19601f820116905080830192505050505050506106c9565b610510576040517f08c379a000000000000000000000000000000000000000000000000000000000815260040161050790610b62565b60405180910390fd5b5f5f855f0160208101906105249190610869565b73ffffffffffffffffffffffffffffffffffffffff1673ffffffffffffffffffffffffffffffffffffffff1681526020019081526020015f205f81548092919061056d90610bad565b9190505550835f0160208101906105849190610869565b73ffffffffffffffffffffffffffffffffffffffff167f3c1a9458ca9cc668d5f314d0b33caa80c385b3ba098a1edc7807ffdc402f6e29856020013586604001356040516105d3929190610bf4565b60405180910390a250505050565b5f7f0000000000000000000000000000000000000000000000000000000000000000905090565b5f5f7f81a313517b0e795628c7d150d105a4a9c24b89cb93801d78137466a17c96b4d0835f01602081019061063d9190610869565b846020013585604001358660600135604051602001610660959493929190610c2a565b6040516020818303038152906040528051906020012090507f0000000000000000000000000000000000000000000000000000000000000000816040516020016106ab929190610cef565b60405160208183030381529060405280519060200120915050919050565b5f5f73ffffffffffffffffffffffffffffffffffffffff168473ffffffffffffffffffffffffffffffffffffffff1603156107cf576040516001156107cd57843b61078857825160408114610726576041811461074557506107cd565b6040840151601b8160ff1c016020528060011b60011c60605250610758565b60608401515f1a60205260408401516060525b50835f5260208301516040526020600160805f60015afa5180861860601b3d1192505f60605281604052506107cd565b631626ba7e60e01b808252846004830152602482016040815284516020018060448501828860045afa60208360443d01878c5afa955080861684845114169550505050505b505b9392505050565b5f819050919050565b6107e8816107d6565b82525050565b5f6020820190506108015f8301846107df565b92915050565b5f5ffd5b5f5ffd5b5f73ffffffffffffffffffffffffffffffffffffffff82169050919050565b5f6108388261080f565b9050919050565b6108488161082e565b8114610852575f5ffd5b50565b5f813590506108638161083f565b92915050565b5f6020828403121561087e5761087d610807565b5b5f61088b84828501610855565b91505092915050565b5f819050919050565b6108a681610894565b82525050565b5f6020820190506108bf5f83018461089d565b92915050565b5f5ffd5b5f608082840312156108de576108dd6108c5565b5b81905092915050565b5f5ffd5b5f5ffd5b5f5ffd5b5f5f83601f840112610908576109076108e7565b5b8235905067ffffffffffffffff811115610925576109246108eb565b5b602083019150836001820283011115610941576109406108ef565b5b9250929050565b5f5f5f60a0848603121561095f5761095e610807565b5b5f61096c868287016108c9565b935050608084013567ffffffffffffffff81111561098d5761098c61080b565b5b610999868287016108f3565b92509250509250925092565b5f608082840312156109ba576109b9610807565b5b5f6109c7848285016108c9565b91505092915050565b5f82825260208201905092915050565b7f5369676e617475726520657870697265640000000000000000000000000000005f82015250565b5f610a146011836109d0565b9150610a1f826109e0565b602082019050919050565b5f6020820190508181035f830152610a4181610a08565b9050919050565b7f496e76616c6964207573657220616464726573730000000000000000000000005f82015250565b5f610a7c6014836109d0565b9150610a8782610a48565b602082019050919050565b5f6020820190508181035f830152610aa981610a70565b9050919050565b7f496e76616c6964206e6f6e6365000000000000000000000000000000000000005f82015250565b5f610ae4600d836109d0565b9150610aef82610ab0565b602082019050919050565b5f6020820190508181035f830152610b1181610ad8565b9050919050565b7f496e76616c6964207369676e61747572650000000000000000000000000000005f82015250565b5f610b4c6011836109d0565b9150610b5782610b18565b602082019050919050565b5f6020820190508181035f830152610b7981610b40565b9050919050565b7f4e487b71000000000000000000000000000000000000000000000000000000005f52601160045260245ffd5b5f610bb782610894565b91507fffffffffffffffffffffffffffffffffffffffffffffffffffffffffffffffff8203610be957610be8610b80565b5b600182019050919050565b5f604082019050610c075f83018561089d565b610c14602083018461089d565b9392505050565b610c248161082e565b82525050565b5f60a082019050610c3d5f8301886107df565b610c4a6020830187610c1b565b610c57604083018661089d565b610c64606083018561089d565b610c71608083018461089d565b9695505050505050565b5f81905092915050565b7f19010000000000000000000000000000000000000000000000000000000000005f82015250565b5f610cb9600283610c7b565b9150610cc482610c85565b600282019050919050565b5f819050919050565b610ce9610ce4826107d6565b610ccf565b82525050565b5f610cf982610cad565b9150610d058285610cd8565b602082019150610d158284610cd8565b602082019150819050939250505056fea264697066735822122046f22837312c8a2e96fd9f333daa26b59db3a8f4b5ddc7007946a36cc68a193964736f6c634300081c0033","linkReferences":{}},"methodIdentifiers":{"DOMAIN_NAME()":"796f077b","DOMAIN_SEPARATOR()":"3644e515","DOMAIN_TYPEHASH()":"20606b70","DOMAIN_VERSION()":"acb8cc49","MESSAGE_TYPEHASH()":"46e356b1","_hashTypedDataV4((address,uint256,uint256,uint256))":"f96addf3","getDomainSeparator()":"ed24911d","getNonce(address)":"2d0335ab","nonces(address)":"7ecebe00","processSignedMessage((address,uint256,uint256,uint256),bytes)":"c2de3ce6"},"id":22}